{
  "contractName": "Claim",
  "abi": [
    {
      "constant": true,
      "inputs": [
        {
          "name": "",
          "type": "uint256"
        }
      ],
      "name": "courseApplications",
      "outputs": [
        {
          "name": "caseId",
          "type": "uint256"
        },
        {
          "name": "courseId",
          "type": "string"
        }
      ],
      "payable": false,
      "stateMutability": "view",
      "type": "function"
    },
    {
      "constant": true,
      "inputs": [
        {
          "name": "",
          "type": "uint256"
        }
      ],
      "name": "courseUpdates",
      "outputs": [
        {
          "name": "caseId",
          "type": "uint256"
        },
        {
          "name": "netfee",
          "type": "uint256"
        },
        {
          "name": "attendancePercentage",
          "type": "uint256"
        },
        {
          "name": "assessmentPercentage",
          "type": "uint256"
        }
      ],
      "payable": false,
      "stateMutability": "view",
      "type": "function"
    },
    {
      "anonymous": false,
      "inputs": [
        {
          "indexed": false,
          "name": "caseId",
          "type": "uint256"
        },
        {
          "indexed": false,
          "name": "courseId",
          "type": "string"
        }
      ],
      "name": "recordCourseApplicationEvent",
      "type": "event"
    },
    {
      "anonymous": false,
      "inputs": [
        {
          "indexed": false,
          "name": "caseId",
          "type": "uint256"
        },
        {
          "indexed": false,
          "name": "netfee",
          "type": "uint256"
        },
        {
          "indexed": false,
          "name": "attendancePercentage",
          "type": "uint256"
        },
        {
          "indexed": false,
          "name": "assessmentPercentage",
          "type": "uint256"
        }
      ],
      "name": "recordCourseUpdatesEvent",
      "type": "event"
    },
    {
      "constant": false,
      "inputs": [
        {
          "name": "_caseId",
          "type": "uint256"
        },
        {
          "name": "_courseId",
          "type": "string"
        }
      ],
      "name": "recordCourseApplication",
      "outputs": [],
      "payable": false,
      "stateMutability": "nonpayable",
      "type": "function"
    },
    {
      "constant": false,
      "inputs": [
        {
          "name": "_caseId",
          "type": "uint256"
        },
        {
          "name": "_netfee",
          "type": "uint256"
        },
        {
          "name": "_attendancePercentage",
          "type": "uint256"
        },
        {
          "name": "_assessmentPercentage",
          "type": "uint256"
        }
      ],
      "name": "recordCourseUpdates",
      "outputs": [],
      "payable": false,
      "stateMutability": "nonpayable",
      "type": "function"
    }
  ],
  "bytecode": "0x608060405234801561001057600080fd5b5061061c806100206000396000f3fe608060405260043610610062576000357c0100000000000000000000000000000000000000000000000000000000900463ffffffff1680630d352e5814610067578063189b021e146101225780639e261f4b146101f4578063f0843ea91461024d575b600080fd5b34801561007357600080fd5b506100a06004803603602081101561008a57600080fd5b81019080803590602001909291905050506102b1565b6040518083815260200180602001828103825283818151815260200191508051906020019080838360005b838110156100e65780820151818401526020810190506100cb565b50505050905090810190601f1680156101135780820380516001836020036101000a031916815260200191505b50935050505060405180910390f35b34801561012e57600080fd5b506101f26004803603604081101561014557600080fd5b81019080803590602001909291908035906020019064010000000081111561016c57600080fd5b82018360208201111561017e57600080fd5b803590602001918460018302840111640100000000831117156101a057600080fd5b91908080601f016020809104026020016040519081016040528093929190818152602001838380828437600081840152601f19601f82011690508083019250505050505050919291929050505061036d565b005b34801561020057600080fd5b5061024b6004803603608081101561021757600080fd5b8101908080359060200190929190803590602001909291908035906020019092919080359060200190929190505050610466565b005b34801561025957600080fd5b506102866004803603602081101561027057600080fd5b810190808035906020019092919050505061051b565b6040518085815260200184815260200183815260200182815260200194505050505060405180910390f35b6000602052806000526040600020600091509050806000015490806001018054600181600116156101000203166002900480601f0160208091040260200160405190810160405280929190818152602001828054600181600116156101000203166002900480156103635780601f1061033857610100808354040283529160200191610363565b820191906000526020600020905b81548152906001019060200180831161034657829003601f168201915b5050505050905082565b6040805190810160405280838152602001828152506000808481526020019081526020016000206000820151816000015560208201518160010190805190602001906103ba92919061054b565b509050507f93b98c3f96479025884389406ff171abce1a034223cd6a0152cdf8508d53722982826040518083815260200180602001828103825283818151815260200191508051906020019080838360005b8381101561042757808201518184015260208101905061040c565b50505050905090810190601f1680156104545780820380516001836020036101000a031916815260200191505b50935050505060405180910390a15050565b6080604051908101604052808581526020018481526020018381526020018281525060016000868152602001908152602001600020600082015181600001556020820151816001015560408201518160020155606082015181600301559050507f67c28b1aacd561c43a5d5627133868234522b5c4604ad8c28d7dba85be894939848484846040518085815260200184815260200183815260200182815260200194505050505060405180910390a150505050565b60016020528060005260406000206000915090508060000154908060010154908060020154908060030154905084565b828054600181600116156101000203166002900490600052602060002090601f016020900481019282601f1061058c57805160ff19168380011785556105ba565b828001600101855582156105ba579182015b828111156105b957825182559160200191906001019061059e565b5b5090506105c791906105cb565b5090565b6105ed91905b808211156105e95760008160009055506001016105d1565b5090565b9056fea165627a7a7230582073760f3429415e32d3d83a9ec715ad581c969e1d0306087d11ffe018f5354c870029",
  "source": "pragma solidity ^0.5.0;\n\ncontract Claim{\n    struct CourseApplication{\n      uint caseId;\n      string courseId;\n      /*string applicantName;\n      uint age;\n      uint courseFee;*/\n    }\n\n    struct CourseUpdates{\n      uint caseId;\n      uint netfee;\n      uint attendancePercentage;\n      uint assessmentPercentage;\n    }\n\n    mapping(uint => CourseApplication) public courseApplications;\n    mapping(uint => CourseUpdates) public courseUpdates;\n\n    event recordCourseApplicationEvent (\n        uint caseId,\n        string courseId\n        /*,string applicantName,\n        uint age,\n        uint courseFee*/\n    );\n\n    event recordCourseUpdatesEvent (\n        uint caseId,\n        uint netfee,\n        uint attendancePercentage,\n        uint assessmentPercentage\n    );\n\n    function recordCourseApplication\n        (uint _caseId, string memory _courseId\n        /*,string memory _applicantName, uint _age, uint _courseFee*/\n        )public{\n         courseApplications[_caseId] = CourseApplication({\n           courseId: _courseId,\n           caseId: _caseId\n           /*,applicantName: _applicantName,\n           age: _age,\n           courseFee: _courseFee*/\n         });\n\n         emit recordCourseApplicationEvent(_caseId, _courseId\n            /*,_applicantName, _age, _courseFee*/\n         );\n    }\n\n    function recordCourseUpdates\n        (uint _caseId, uint _netfee, uint _attendancePercentage, uint _assessmentPercentage)\n        public{\n         courseUpdates[_caseId] = CourseUpdates({\n           caseId: _caseId,\n           netfee: _netfee,\n           attendancePercentage: _attendancePercentage,\n           assessmentPercentage: _assessmentPercentage\n         });\n\n         emit recordCourseUpdatesEvent(_caseId, _netfee, _attendancePercentage, _assessmentPercentage);\n    }\n}\n",
  "sourcePath": "/Users/roni/prototype/contracts/Claim.sol",
  "compiler": {
    "name": "solc",
    "version": "0.5.0+commit.1d4f565a.Emscripten.clang"
  },
  "schemaVersion": "3.0.9",
  "updatedAt": "2019-06-16T14:30:50.933Z",
  "devdoc": {
    "methods": {}
  },
  "userdoc": {
    "methods": {}
  }
}